{
  "contractName": "ArbitrageBot",
  "abi": [
    {
      "anonymous": false,
      "inputs": [
        {
          "indexed": true,
          "internalType": "address",
          "name": "previousOwner",
          "type": "address"
        },
        {
          "indexed": true,
          "internalType": "address",
          "name": "newOwner",
          "type": "address"
        }
      ],
      "name": "OwnershipTransferred",
      "type": "event"
    },
    {
      "inputs": [],
      "name": "MinPercentage",
      "outputs": [
        {
          "internalType": "uint256",
          "name": "",
          "type": "uint256"
        }
      ],
      "stateMutability": "view",
      "type": "function"
    },
    {
      "inputs": [],
      "name": "Percentage_Divider",
      "outputs": [
        {
          "internalType": "uint256",
          "name": "",
          "type": "uint256"
        }
      ],
      "stateMutability": "view",
      "type": "function"
    },
    {
      "inputs": [],
      "name": "owner",
      "outputs": [
        {
          "internalType": "address",
          "name": "",
          "type": "address"
        }
      ],
      "stateMutability": "view",
      "type": "function"
    },
    {
      "inputs": [],
      "name": "renounceOwnership",
      "outputs": [],
      "stateMutability": "nonpayable",
      "type": "function"
    },
    {
      "inputs": [
        {
          "internalType": "address",
          "name": "newOwner",
          "type": "address"
        }
      ],
      "name": "transferOwnership",
      "outputs": [],
      "stateMutability": "nonpayable",
      "type": "function"
    },
    {
      "inputs": [
        {
          "internalType": "uint256",
          "name": "Percentage",
          "type": "uint256"
        }
      ],
      "name": "changeMinPercentage",
      "outputs": [],
      "stateMutability": "nonpayable",
      "type": "function"
    },
    {
      "inputs": [
        {
          "internalType": "address",
          "name": "router0",
          "type": "address"
        },
        {
          "internalType": "address",
          "name": "router1",
          "type": "address"
        },
        {
          "internalType": "address",
          "name": "token0",
          "type": "address"
        },
        {
          "internalType": "address",
          "name": "token1",
          "type": "address"
        },
        {
          "internalType": "uint256",
          "name": "amount",
          "type": "uint256"
        }
      ],
      "name": "CrossExchangeArbitrage",
      "outputs": [],
      "stateMutability": "payable",
      "type": "function"
    },
    {
      "inputs": [
        {
          "internalType": "address",
          "name": "router",
          "type": "address"
        },
        {
          "internalType": "address",
          "name": "token0",
          "type": "address"
        },
        {
          "internalType": "address",
          "name": "token1",
          "type": "address"
        },
        {
          "internalType": "address",
          "name": "token2",
          "type": "address"
        },
        {
          "internalType": "uint256",
          "name": "amount",
          "type": "uint256"
        }
      ],
      "name": "Trianglestrategy1",
      "outputs": [],
      "stateMutability": "payable",
      "type": "function"
    }
  ],
  "bytecode": "0x608060405260146002556103e860035534801561001b57600080fd5b506100253361002a565b61007a565b600080546001600160a01b038381166001600160a01b0319831681178455604051919092169283917f8be0079c531659141344cd1fd0a4f28419497f9722a3daafe3b4186f6b6457e09190a35050565b6119cb806100896000396000f3fe60806040526004361061007b5760003560e01c80636249706b1161004e5780636249706b146100f1578063715018a6146101075780638da5cb5b1461011c578063f2fde38b1461014457600080fd5b80630371ab7c146100805780632dfb00d71461009557806345c4f5e8146100be578063574dfab2146100d1575b600080fd5b61009361008e3660046116d2565b610164565b005b3480156100a157600080fd5b506100ab60035481565b6040519081526020015b60405180910390f35b6100936100cc3660046116d2565b610be3565b3480156100dd57600080fd5b506100936100ec366004611736565b611048565b3480156100fd57600080fd5b506100ab60025481565b34801561011357600080fd5b50610093611055565b34801561012857600080fd5b506000546040516001600160a01b0390911681526020016100b5565b34801561015057600080fd5b5061009361015f36600461174f565b611069565b61016c6110f9565b6000856001600160a01b031663ad5c46486040518163ffffffff1660e01b815260040160206040518083038186803b1580156101a757600080fd5b505afa1580156101bb573d6000803e3d6000fd5b505050506040513d601f19601f820116820180604052508101906101df9190611773565b9050806001600160a01b0316856001600160a01b0316141561057b576000341161025f5760405162461bcd60e51b815260206004820152602660248201527f696e73756666696369656e742066756e647320666f7220746865207472616e7360448201526530b1ba34b7b760d11b60648201526084015b60405180910390fd5b61026a868534611153565b6040516370a0823160e01b81523060048201526001600160a01b0385169063095ea7b390889083906370a082319060240160206040518083038186803b1580156102b357600080fd5b505afa1580156102c7573d6000803e3d6000fd5b505050506040513d601f19601f820116820180604052508101906102eb9190611790565b6040516001600160e01b031960e085901b1681526001600160a01b0390921660048301526024820152604401602060405180830381600087803b15801561033157600080fd5b505af1158015610345573d6000803e3d6000fd5b505050506040513d601f19601f8201168201806040525081019061036991906117a9565b506040516370a0823160e01b81523060048201526103f1908790869086906001600160a01b038316906370a08231906024015b60206040518083038186803b1580156103b457600080fd5b505afa1580156103c8573d6000803e3d6000fd5b505050506040513d601f19601f820116820180604052508101906103ec9190611790565b611304565b6040516370a0823160e01b81523060048201526001600160a01b0384169063095ea7b390889083906370a082319060240160206040518083038186803b15801561043a57600080fd5b505afa15801561044e573d6000803e3d6000fd5b505050506040513d601f19601f820116820180604052508101906104729190611790565b6040516001600160e01b031960e085901b1681526001600160a01b0390921660048301526024820152604401602060405180830381600087803b1580156104b857600080fd5b505af11580156104cc573d6000803e3d6000fd5b505050506040513d601f19601f820116820180604052508101906104f091906117a9565b506040516370a0823160e01b815230600482015261057690879085906001600160a01b038216906370a08231906024015b60206040518083038186803b15801561053957600080fd5b505afa15801561054d573d6000803e3d6000fd5b505050506040513d601f19601f820116820180604052508101906105719190611790565b611447565b610bdb565b806001600160a01b0316846001600160a01b0316141561074057600082116105f45760405162461bcd60e51b815260206004820152602660248201527f696e73756666696369656e742066756e647320666f7220746865207472616e7360448201526530b1ba34b7b760d11b6064820152608401610256565b6105ff868684611447565b61060a868547611153565b6040516370a0823160e01b81523060048201526001600160a01b0385169063095ea7b390889083906370a082319060240160206040518083038186803b15801561065357600080fd5b505afa158015610667573d6000803e3d6000fd5b505050506040513d601f19601f8201168201806040525081019061068b9190611790565b6040516001600160e01b031960e085901b1681526001600160a01b0390921660048301526024820152604401602060405180830381600087803b1580156106d157600080fd5b505af11580156106e5573d6000803e3d6000fd5b505050506040513d601f19601f8201168201806040525081019061070991906117a9565b506040516370a0823160e01b8152306004820152610576908790869088906001600160a01b038316906370a082319060240161039c565b806001600160a01b0316836001600160a01b0316141561090457600082116107b95760405162461bcd60e51b815260206004820152602660248201527f696e73756666696369656e742066756e647320666f7220746865207472616e7360448201526530b1ba34b7b760d11b6064820152608401610256565b6107c586868685611304565b6040516370a0823160e01b81523060048201526001600160a01b0385169063095ea7b390889083906370a082319060240160206040518083038186803b15801561080e57600080fd5b505afa158015610822573d6000803e3d6000fd5b505050506040513d601f19601f820116820180604052508101906108469190611790565b6040516001600160e01b031960e085901b1681526001600160a01b0390921660048301526024820152604401602060405180830381600087803b15801561088c57600080fd5b505af11580156108a0573d6000803e3d6000fd5b505050506040513d601f19601f820116820180604052508101906108c491906117a9565b506040516370a0823160e01b81523060048201526108f990879086906001600160a01b038216906370a0823190602401610521565b610576868647611153565b600082116109635760405162461bcd60e51b815260206004820152602660248201527f696e73756666696369656e742066756e647320666f7220746865207472616e7360448201526530b1ba34b7b760d11b6064820152608401610256565b61096f86868685611304565b6040516370a0823160e01b81523060048201526001600160a01b0385169063095ea7b390889083906370a082319060240160206040518083038186803b1580156109b857600080fd5b505afa1580156109cc573d6000803e3d6000fd5b505050506040513d601f19601f820116820180604052508101906109f09190611790565b6040516001600160e01b031960e085901b1681526001600160a01b0390921660048301526024820152604401602060405180830381600087803b158015610a3657600080fd5b505af1158015610a4a573d6000803e3d6000fd5b505050506040513d601f19601f82011682018060405250810190610a6e91906117a9565b506040516370a0823160e01b8152306004820152610aa5908790869086906001600160a01b038316906370a082319060240161039c565b6040516370a0823160e01b81523060048201526001600160a01b0384169063095ea7b390889083906370a082319060240160206040518083038186803b158015610aee57600080fd5b505afa158015610b02573d6000803e3d6000fd5b505050506040513d601f19601f82011682018060405250810190610b269190611790565b6040516001600160e01b031960e085901b1681526001600160a01b0390921660048301526024820152604401602060405180830381600087803b158015610b6c57600080fd5b505af1158015610b80573d6000803e3d6000fd5b505050506040513d601f19601f82011682018060405250810190610ba491906117a9565b506040516370a0823160e01b8152306004820152610bdb908790859088906001600160a01b038316906370a082319060240161039c565b505050505050565b610beb6110f9565b6000856001600160a01b031663ad5c46486040518163ffffffff1660e01b815260040160206040518083038186803b158015610c2657600080fd5b505afa158015610c3a573d6000803e3d6000fd5b505050506040513d601f19601f82011682018060405250810190610c5e9190611773565b9050806001600160a01b0316846001600160a01b03161415610e185760003411610cd95760405162461bcd60e51b815260206004820152602660248201527f696e73756666696369656e742066756e647320666f7220746865207472616e7360448201526530b1ba34b7b760d11b6064820152608401610256565b610ce4868434611153565b6040516370a0823160e01b81523060048201526001600160a01b0384169063095ea7b390879083906370a082319060240160206040518083038186803b158015610d2d57600080fd5b505afa158015610d41573d6000803e3d6000fd5b505050506040513d601f19601f82011682018060405250810190610d659190611790565b6040516001600160e01b031960e085901b1681526001600160a01b0390921660048301526024820152604401602060405180830381600087803b158015610dab57600080fd5b505af1158015610dbf573d6000803e3d6000fd5b505050506040513d601f19601f82011682018060405250810190610de391906117a9565b506040516370a0823160e01b815230600482015261057690869085906001600160a01b038216906370a0823190602401610521565b806001600160a01b0316836001600160a01b03161415610ea75760008211610e915760405162461bcd60e51b815260206004820152602660248201527f696e73756666696369656e742066756e647320666f7220746865207472616e7360448201526530b1ba34b7b760d11b6064820152608401610256565b610e9c868584611447565b610576858547611153565b60008211610f065760405162461bcd60e51b815260206004820152602660248201527f696e73756666696369656e742066756e647320666f7220746865207472616e7360448201526530b1ba34b7b760d11b6064820152608401610256565b610f1286858585611304565b6040516370a0823160e01b81523060048201526001600160a01b0384169063095ea7b390879083906370a082319060240160206040518083038186803b158015610f5b57600080fd5b505afa158015610f6f573d6000803e3d6000fd5b505050506040513d601f19601f82011682018060405250810190610f939190611790565b6040516001600160e01b031960e085901b1681526001600160a01b0390921660048301526024820152604401602060405180830381600087803b158015610fd957600080fd5b505af1158015610fed573d6000803e3d6000fd5b505050506040513d601f19601f8201168201806040525081019061101191906117a9565b506040516370a0823160e01b8152306004820152610bdb908690859087906001600160a01b038316906370a082319060240161039c565b6110506110f9565b600255565b61105d6110f9565b61106760006115f3565b565b6110716110f9565b6001600160a01b0381166110ed5760405162461bcd60e51b815260206004820152602660248201527f4f776e61626c653a206e6577206f776e657220697320746865207a65726f206160448201527f64647265737300000000000000000000000000000000000000000000000000006064820152608401610256565b6110f6816115f3565b50565b6000546001600160a01b031633146110675760405162461bcd60e51b815260206004820181905260248201527f4f776e61626c653a2063616c6c6572206973206e6f7420746865206f776e65726044820152606401610256565b604080516002808252606082018352909160208301908036833750508151611182926001925060200190611643565b50826001600160a01b031663ad5c46486040518163ffffffff1660e01b815260040160206040518083038186803b1580156111bc57600080fd5b505afa1580156111d0573d6000803e3d6000fd5b505050506040513d601f19601f820116820180604052508101906111f49190611773565b6001600081548110611208576112086117e1565b9060005260206000200160006101000a8154816001600160a01b0302191690836001600160a01b03160217905550816001808154811061124a5761124a6117e1565b6000918252602082200180546001600160a01b0319166001600160a01b0393841617905590841690637ff36ab59083906001306112894261012c6117f7565b6040518663ffffffff1660e01b81526004016112a89493929190611866565b6000604051808303818588803b1580156112c157600080fd5b505af11580156112d5573d6000803e3d6000fd5b50505050506040513d6000823e601f3d908101601f191682016040526112fe919081019061189b565b50505050565b604080516002808252606082018352909160208301908036833750508151611333926001925060200190611643565b50826001600081548110611349576113496117e1565b9060005260206000200160006101000a8154816001600160a01b0302191690836001600160a01b03160217905550816001808154811061138b5761138b6117e1565b6000918252602082200180546001600160a01b0319166001600160a01b03938416179055908516906338ed17399083906001306113ca4261012c6117f7565b6040518663ffffffff1660e01b81526004016113ea959493929190611959565b600060405180830381600087803b15801561140457600080fd5b505af1158015611418573d6000803e3d6000fd5b505050506040513d6000823e601f3d908101601f19168201604052611440919081019061189b565b5050505050565b604080516002808252606082018352909160208301908036833750508151611476926001925060200190611643565b5081600160008154811061148c5761148c6117e1565b9060005260206000200160006101000a8154816001600160a01b0302191690836001600160a01b03160217905550826001600160a01b031663ad5c46486040518163ffffffff1660e01b815260040160206040518083038186803b1580156114f357600080fd5b505afa158015611507573d6000803e3d6000fd5b505050506040513d601f19601f8201168201806040525081019061152b9190611773565b6001808154811061153e5761153e6117e1565b6000918252602082200180546001600160a01b0319166001600160a01b03938416179055908416906318cbafe590839060013061157d4261012c6117f7565b6040518663ffffffff1660e01b815260040161159d959493929190611959565b600060405180830381600087803b1580156115b757600080fd5b505af11580156115cb573d6000803e3d6000fd5b505050506040513d6000823e601f3d908101601f191682016040526112fe919081019061189b565b600080546001600160a01b038381166001600160a01b0319831681178455604051919092169283917f8be0079c531659141344cd1fd0a4f28419497f9722a3daafe3b4186f6b6457e09190a35050565b828054828255906000526020600020908101928215611698579160200282015b8281111561169857825182546001600160a01b0319166001600160a01b03909116178255602090920191600190910190611663565b506116a49291506116a8565b5090565b5b808211156116a457600081556001016116a9565b6001600160a01b03811681146110f657600080fd5b600080600080600060a086880312156116ea57600080fd5b85356116f5816116bd565b94506020860135611705816116bd565b93506040860135611715816116bd565b92506060860135611725816116bd565b949793965091946080013592915050565b60006020828403121561174857600080fd5b5035919050565b60006020828403121561176157600080fd5b813561176c816116bd565b9392505050565b60006020828403121561178557600080fd5b815161176c816116bd565b6000602082840312156117a257600080fd5b5051919050565b6000602082840312156117bb57600080fd5b8151801515811461176c57600080fd5b634e487b7160e01b600052604160045260246000fd5b634e487b7160e01b600052603260045260246000fd5b6000821982111561181857634e487b7160e01b600052601160045260246000fd5b500190565b6000815480845260208085019450836000528060002060005b8381101561185b5781546001600160a01b031687529582019560019182019101611836565b509495945050505050565b84815260806020820152600061187f608083018661181d565b6001600160a01b03949094166040830152506060015292915050565b600060208083850312156118ae57600080fd5b825167ffffffffffffffff808211156118c657600080fd5b818501915085601f8301126118da57600080fd5b8151818111156118ec576118ec6117cb565b8060051b604051601f19603f83011681018181108582111715611911576119116117cb565b60405291825284820192508381018501918883111561192f57600080fd5b938501935b8285101561194d57845184529385019392850192611934565b98975050505050505050565b85815284602082015260a06040820152600061197860a083018661181d565b6001600160a01b039490941660608301525060800152939250505056fea264697066735822122066f0bdae61fbba9324ea8d4c7db73aa6fedf699f5a1ccbfd470c41386a6bbf6264736f6c63430008090033",
  "immutableReferences": {},
  "source": "// SPDX-License-Identifier: MIT\npragma solidity 0.8.9;\n\nimport \"./interfaces/IERC20.sol\";\nimport \"./interfaces/IUniswapV2Router02.sol\";\nimport \"./interfaces/IUniswapV2Factory.sol\";\nimport \"./interfaces/Ownable.sol\";\n\ncontract ArbitrageBot is Ownable {\n    // address payable owner;\n\n\n    address[] path;\n    uint256 public MinPercentage = 20;\n    uint256 public Percentage_Divider = 1000;\n\n    function changeMinPercentage(uint256 Percentage) public onlyOwner {\n        MinPercentage = Percentage;\n    }\n\n    function CalculatePercentage(uint256 amount) internal returns (uint256) {\n        uint256 MinToken = amount +\n            ((MinPercentage * amount) / Percentage_Divider);\n    }\n\n    function CrossExchangeArbitrage(\n        address router0,\n        address router1,\n        address token0,\n        address token1,\n        uint256 amount\n    ) public payable onlyOwner {\n        address WETH = IUniswapV2Router01(router0).WETH();\n\n        if (token0 == WETH) {\n            require(msg.value > 0, \"insufficient funds for the transaction\");\n            swapETHtoToken(router0, token1, msg.value);\n\n            IERC20(token1).approve(\n                router1,\n                IERC20(token1).balanceOf(address(this))\n            );\n            swapTokenToEth(\n                router1,\n                token1,\n                IERC20(token1).balanceOf(address(this))\n            );\n        } else if (token1 == WETH) {\n            require(amount > 0, \"insufficient funds for the transaction\");\n            swapTokenToEth(router0, token0, amount);\n\n            swapETHtoToken(router1, token0, address(this).balance);\n        } else {\n            require(amount > 0, \"insufficient funds for the transaction\");\n            swap(router0, token0, token1, amount);\n            IERC20(token1).approve(\n                router1,\n                IERC20(token1).balanceOf(address(this))\n            );\n            swap(\n                router1,\n                token1,\n                token0,\n                IERC20(token1).balanceOf(address(this))\n            );\n        }\n    }\n\n    function Trianglestrategy1(\n        address router,\n        address token0,\n        address token1,\n        address token2,\n        uint256 amount\n    ) public payable onlyOwner {\n        address WETH = IUniswapV2Router01(router).WETH();\n        if (token0 == WETH) {\n            require(msg.value > 0, \"insufficient funds for the transaction\");\n            swapETHtoToken(router, token1, msg.value);\n            IERC20(token1).approve(\n                router,\n                IERC20(token1).balanceOf(address(this))\n            );\n            swap(\n                router,\n                token1,\n                token2,\n                IERC20(token1).balanceOf(address(this))\n            );\n\n            IERC20(token2).approve(\n                router,\n                IERC20(token2).balanceOf(address(this))\n            );\n            swapTokenToEth(\n                router,\n                token2,\n                IERC20(token2).balanceOf(address(this))\n            );\n        } else if (token1 == WETH) {\n            require(amount > 0, \"insufficient funds for the transaction\");\n            swapTokenToEth(router, token0, amount);\n            swapETHtoToken(router, token1, address(this).balance);\n            IERC20(token1).approve(\n                router,\n                IERC20(token1).balanceOf(address(this))\n            );\n            swap(\n                router,\n                token1,\n                token0,\n                IERC20(token1).balanceOf(address(this))\n            );\n        } else if (token2 == WETH) {\n            require(amount > 0, \"insufficient funds for the transaction\");\n            swap(router, token0, token1, amount);\n            IERC20(token1).approve(\n                router,\n                IERC20(token1).balanceOf(address(this))\n            );\n            swapTokenToEth(\n                router,\n                token1,\n                IERC20(token1).balanceOf(address(this))\n            );\n            swapETHtoToken(router, token0, address(this).balance);\n        } else {\n            require(amount > 0, \"insufficient funds for the transaction\");\n            swap(router, token0, token1, amount);\n            IERC20(token1).approve(\n                router,\n                IERC20(token1).balanceOf(address(this))\n            );\n            swap(\n                router,\n                token1,\n                token2,\n                IERC20(token1).balanceOf(address(this))\n            );\n            IERC20(token2).approve(\n                router,\n                IERC20(token2).balanceOf(address(this))\n            );\n            swap(\n                router,\n                token2,\n                token0,\n                IERC20(token2).balanceOf(address(this))\n            );\n        }\n    }\n\n    function swap(\n        address router,\n        address tokenA,\n        address tokenB,\n        uint256 amount\n    ) internal {\n        path = new address[](2);\n        path[0] = tokenA;\n        path[1] = tokenB;\n\n        IUniswapV2Router01(router).swapExactTokensForTokens(\n            amount,\n            0,\n            path,\n            address(this),\n            block.timestamp + 300 seconds\n        );\n    }\n\n    function swapETHtoToken(\n        address router,\n        address token,\n        uint256 amount\n    ) internal {\n        path = new address[](2);\n        path[0] = IUniswapV2Router01(router).WETH();\n        path[1] = token;\n\n        IUniswapV2Router01(router).swapExactETHForTokens{value: amount}(\n            0,\n            path,\n            address(this),\n            block.timestamp + 300 seconds\n        );\n    }\n\n    function swapTokenToEth(\n        address router,\n        address token,\n        uint256 amount\n    ) internal {\n        path = new address[](2);\n        path[0] = token;\n        path[1] = IUniswapV2Router01(router).WETH();\n\n        IUniswapV2Router01(router).swapExactTokensForETH(\n            amount,\n            0,\n            path,\n            address(this),\n            block.timestamp + 300 seconds\n        );\n    }\n}",
  "sourcePath": "/home/rayzia/Desktop/bot/contracts/Bot.sol",
  "compiler": {
    "name": "solc",
    "version": "0.8.9+commit.e5eed63a.Emscripten.clang"
  },
  "schemaVersion": "3.4.10",
  "updatedAt": "2023-01-06T10:07:36.902Z",
  "devdoc": {
    "kind": "dev",
    "methods": {
      "owner()": {
        "details": "Returns the address of the current owner."
      },
      "renounceOwnership()": {
        "details": "Leaves the contract without owner. It will not be possible to call `onlyOwner` functions anymore. Can only be called by the current owner. NOTE: Renouncing ownership will leave the contract without an owner, thereby removing any functionality that is only available to the owner."
      },
      "transferOwnership(address)": {
        "details": "Transfers ownership of the contract to a new account (`newOwner`). Can only be called by the current owner."
      }
    },
    "version": 1
  },
  "userdoc": {
    "kind": "user",
    "methods": {},
    "version": 1
  }
}